:020000040800F2
:1000000078060020ED010008812A00086129000817
:100010007D2A0008050300080140000800000000D8
:10002000000000000000000000000000892A000815
:10003000D103000800000000852A0008AD2B00084D
:10004000070200080702000807020008070200086C
:10005000070200080702000807020008070200085C
:10006000070200080702000807020008070200084C
:10007000070200080702000807020008070200083C
:10008000070200080000000007020008070200083D
:1000900007020008E1030008ED030008070200085A
:1000A000070200080702000807020008070200080C
:1000B00007020008070200080702000807020008FC
:1000C00007020008070200080702000807020008EC
:1000D00007020008F53F00080702000807020008B1
:1000E00007020008070200080702000807020008CC
:1000F00007020008070200080702000800000000CD
:1001000000000000070200080000000007020008CD
:1001100007020008000000000702000807020008AC
:10012000070200080702000807020008070200088B
:10013000070200080000000000000000070200089D
:10014000070200080702000800000000000000008D
:10015000000000000000000000000000000000009F
:10016000000000000000000000000000070200087E
:10017000070200080000000000000000000000006E
:10018000000000000702000800000000000000005E
:10019000000000000000000000000000000000005F
:1001A000000000000000000007020008070200082D
:1001B000070200080702000807020008000000000C
:1001C000000000000702000800000000000000001E
:1001D0000702000807020008DFF80CD000F07AF8E8
:1001E000004800472940000878060020064880475C
:1001F00006480047FEE7FEE7FEE7FEE7FEE7FEE70C
:10020000FEE7FEE7FEE7FEE7B12B0008D901000894
:100210002DE9F05F0546002092469B46884606463B
:10022000814640241BE0284641464746224600F0CE
:1002300041F853465A46C01A914110D31146184608
:10024000224600F028F82D1A67EB01084F46224697
:100250000120002100F01FF817EB00094E41201E7D
:10026000A4F10104DFDC484631462A464346BDE896
:10027000F09FD2B201E000F8012B491EFBD270477B
:100280000022F6E710B513460A4604461946FFF762
:10029000F0FF204610BD202A04DB203A00FA02F1CC
:1002A000002070479140C2F1200320FA03F3194364
:1002B00090407047202A04DB203A21FA02F0002106
:1002C000704721FA02F3D040C2F120029140084366
:1002D000194670471CB50948009009480190054629
:1002E000009C06E0E06840F0010394E807009847AE
:1002F0001034AC42F6D3FFF773FF00000846000845
:1003000028460008FEE7000010B588B0022000244F
:1003100004900120CDE9050440F2F800C2F200008B
:1003200002A9CDE90244079400F0C2F9002818BFE1
:1003300000F050F840F2F800C2F200000221022260
:100340000023009400F0E4F9002818BF00F042F800
:1003500040F2F800C2F200000121002200F0C4F8CF
:10036000002818BF00F036F840F2F800C2F2000092
:100370000521002200F0ECF9002818BF00F02AF84F
:1003800040F2F800C2F2000000F0F2F9002818BFB5
:1003900000F020F840F2F800C2F2000000F05EFD2C
:1003A000002818BF00F016F840F22800C2F2000042
:1003B0000121002208234FF40014C0E90112C0E912
:1003C0000323C0E90522C0E90742426208B010BD1C
:1003D00070470000EFF3108072B600BFFEE7000028
:1003E00040F2F800C2F2000000F092BA40F2F800C9
:1003F000C2F2000000F08CBA014690F825000228F5
:1004000028D180B50868D1E910CE8A6C036823F042
:100410000E030360136823F480731360026822F0F4
:10042000010202600EF01F00012202FA00F0CCF877
:100430000400D1E913205060486D30B1026822F405
:1004400080720260D1E9160242600020BDE880405F
:1004500003E000BF0420C8630120012281F82520A9
:10046000002281F82420704790F82510022931D10C
:1004700080B50168D0E910CE826C0B6823F00E03C2
:100480000B600B6823F001030B60116821F480718D
:1004900011600EF01F02012101FA02F2CCF80420D3
:1004A000D0E913325A60426D32B1136823F480737D
:1004B0001360D0E91623536080F82510826B002169
:1004C00080F824100AB190470021BDE8804008461A
:1004D000704700BF0421C1630121002280F825106C
:1004E00080F824200846704710B590F85C30013B36
:1004F000012B69D800685FEA417ED0F858C00CF043
:10050000010300D01BB311F0380F02D01CF002041D
:100510001DD011F4E07F02D01CF0040417D011F4B8
:10052000F05F02D01CF0080411D011F4604F02D02B
:100530001CF010040BD011F4403F02D01CF020043A
:1005400005D011F47C0F06D01CF0400403D1C46D1B
:1005500044F00104C465BEF1000F18BF002B3BD16D
:1005600011F0380F18BF1CF0020335D111F4E07FF1
:1005700018BF1CF004032FD111F4F05F18BF1CF05A
:10058000080329D111F4604F18BF1CF0100323D1C8
:1005900011F4403F18BF1CF020031DD111F47C0F53
:1005A00018BF1CF0400317D10B061BD4CB0504D594
:1005B000D0F8E0301A43C0F8E02000F154020020E7
:1005C00013681943116010BD00F16002012002217F
:1005D00013681943116010BDC36D43F00203C36576
:1005E0000B06E3D5D0F8DC301343C0F8DC30CB0584
:1005F000DED4E2E790F85C30022B17D12DE9F04110
:100600000668D6F8C4309B0216D4D6F8C430D1E9B7
:100610000075D1F808E00C69C3F3014CA5B144EAB8
:10062000070343EA0E0343F0804E11E0016E41F0F0
:100630000801016601207047016E41F400710166F6
:100640000120BDE8F08100BF44EA87434EEA030E73
:10065000D1E90757D1E9058445EA0765CB682C4302
:10066000456D44EA08040CEBCC0744EA034405EB6F
:10067000C70345F837E05C60CF6887B144F2BC55EA
:10068000083303320024C0F6000500BF171957F8DD
:10069000037C1F51CF680434EF5DBC42F6D30121C7
:1006A00001FA0CF1C6F8CC1081650020BDE8F0819C
:1006B00090F85C20013A012A14D880B50A68BAB1D2
:1006C00001F1040E9EE80450D1E90431406C43EA84
:1006D0004E7E41EA8C7100EBC20340F832E0596073
:1006E000002080BD016E41F00201016601207047CB
:1006F000D1E90323D1E901CED206496942EA8E72DB
:1007000042EA0342006C114340F82C10002080BDE7
:1007100090F85CC0BCF1010F14D180B50068920064
:10072000D0F880C0DDF808E042EA011141EA430157
:100730002CF03F0C41EA0E0141EA0C01C0F8801098
:10074000002080BD016E41F0040101660120704768
:1007500090F85C30012B05D1006842EA01218164E8
:1007600000207047016E41F00401016601207047CE
:1007700090F85C10012909D100684FF4000200F1E3
:100780000C0100200B681A430A60704700F16001F9
:10079000012004220B681A430A607047704700006A
:1007A000704700002DE9F04390F85C70022F1BD1D8
:1007B000D0F800C040291FD1DCF890703F0700F04E
:1007C0009D80DCF89070FF0146BFDCF88070C7F3B5
:1007D00040270027DCF89060C6F3012606EB070CE3
:1007E00000F148071DE000BF016E41F008010166FD
:1007F0000120BDE8F08300BFDCF898703F077DD092
:10080000DCF89870FF0146BFDCF88070C7F3002762
:100810000027DCF89860C6F3012606EB070C00F110
:100820004C073F680CEBCC0657F8365007EBC60E6A
:1008300015F08045556057F8365025F0604408BFE4
:10084000C5F38A44146057F8365005F0005595609A
:1008500057F8364004F000441461BEF80440D461F7
:10086000BEF8064014F00F04D460DEF8044004F42F
:1008700080145461DEF8044004F4001494619EF87E
:10088000074004F07F041462DEF804404FEAD47499
:10089000546228D044F2BC580024C0F6000800BFBF
:1008A0000EEB0406377A651C1F55D76818F80770D9
:1008B000BD4218D2757A1F197D70D56818F8059059
:1008C000A51C4D450FD2B57ABD70D56818F80590B6
:1008D000E51C4D4507D2F57A0434FD70D56818F84B
:1008E0000550AC42DCD3006840290CBFC0F894C06E
:1008F000C0F89CC00020BDE8F08300BF016E41F449
:10090000807101660120BDE8F0830000704700009F
:100910002DE9F04F85B004460068016D426DD0F8B6
:1009200050B0456D076D466D036D01EA02080493F2
:10093000436D0393036D0293436D0193D0F854A06C
:10094000D0F850905FEA496307D51AF0400104D00F
:10095000402101652046FFF7D9FF0BEA050B5FEA4E
:10096000C95008F4E0550ED51AF480700BD02068F9
:10097000D0F8D810D0F8E02011404FF48072026512
:10098000204600F085FA37400BF007062DB12068AD
:1009900029460565204600F07FFA07F038052EB19C
:1009A000206831460665204600F0ECF92DB120683C
:1009B00029460565204600F04FFA5FEA895009D5BF
:1009C0001AF4007006D020684FF4007101652046CB
:1009D00000F064FA5FEA09600DD51AF080000AD0D1
:1009E0002068D0F8D410D0F8DC20114080220265B5
:1009F000204600F04FFA5FEA894009D51AF400500A
:100A000006D020684FF400510165204600F03EFA00
:100A10005FEA0940DDE9011000EA010509D51AF491
:100A2000004006D020684FF400410165204600F0E8
:100A30002BFADDE9031008405FEA494105F4602123
:100A40000AD51AF4804207D022684FF48043136518
:100A5000226E42F08002226600F4710521B1206806
:100A600001652046FFF79CFE25B120680565206ED4
:100A700028432066206E28B1204605B0BDE8F04F1F
:100A8000FFF78CBE05B0BDE8F08F0000002804BF62
:100A90000120704770B5044690F85C0028B900202A
:100AA00084F85D00204600F017F92068816921F084
:100AB0001001816100F0C4FA054600BF2068816919
:100AC000090705D500F0BCFA401B0B28F6D310E04F
:100AD000816941F00101816100F0B2FA054600BF71
:100AE00021688869C0070DD100F0AAFA401B0B28C5
:100AF000F6D3206E032140F001002066012084F827
:100B00005C1070BD4AF200408A69C4F20000A0F592
:100B1000804342F0020299428A6105D162684CF238
:100B20000013CFF6FF73C250227C8B69012A23F099
:100B3000400318BF40338B61627C8B69012A23F428
:100B4000804308BF03F580438B61A27C8B69012A37
:100B500023F4805318BF03F580538B618D69D4E96A
:100B600002E325F4407545EA0E058D618D6925F097
:100B7000A4058D610D6925F010050D61A3B1012B50
:100B80000ED0022B09D08D69032B45F080058D61B5
:100B90000D6945F010050D6106D1202301E000BF6D
:100BA00004238D692B438B61D4E90535D4E90726ED
:100BB0006FF0FF0C013D0CEB022242EA4562751E0C
:100BC0002A430025CFF6FF7505EB03431A43BEF514
:100BD000407FCA6110D1D4E909E3D4E90B62013B3B
:100BE0000CEB062633436FF00F0606EB02121A4396
:100BF00005EB0E431A43CA6004F134064CCED1F81B
:100C0000C0502E43C1F8C0602064D1F880604AF221
:100C1000704526F4F816C4F2000546EA0242C1F80F
:100C200080206564D1F8802022F0706242EA03627D
:100C3000C1F8802005F14001A16405F58C71E164E3
:100C400005F5F871216505F502716165002105F56D
:100C5000037200BFC0E90011C0E90211C0E904112C
:100C6000C0E90611C0E90811C0E90A11C0E90C1178
:100C7000C0E90E11C0E91011C0E91211C0E9141148
:100C8000C0E91611C0E91811C0E91A11C0E91C1118
:100C9000C0E91E11C0E92011C0E92211C0E92411E8
:100CA000C0E92611C0E92811C0E92A11C0E92C11B8
:100CB000C0E92E11C0E93011C0E93211C0F8D010DE
:100CC000904200F1D400C5D300200121A065206628
:100CD00084F85C1070BD000010B596B004466846FC
:100CE00004304021FFF7CCFA206846F20041C4F2FC
:100CF0000001884202D016B010BD00BF4FF48050F2
:100D000000904FF000700C90684600F0E9FA00285F
:100D100018BFFFF75FFB41F24C00C4F20200C1684C
:100D200041F00071C160C16801F000711191119929
:100D3000016841F001010160006811A900F00100A3
:100D4000119011984FF4C050119002201290002081
:100D5000CDE91300092015904FF0904000F0A0F865
:100D600015200021002200F0E1F9152000F0CCF957
:100D700016200021002200F0D9F9162000F0C4F955
:100D800016B010BDC90708BF70472DE9F04182B009
:100D900040F2280640F27804C2F20006C2F20004D3
:100DA00006F12802402123460546FFF7FBFC286890
:100DB00046F20041C4F20001884202D11DA003F0B6
:100DC00081F940F20C07C2F20007D6E90D05F36B7A
:100DD00007F1040818F80020C3F300503B5C07EB50
:100DE000D570B16A857816A0009503F06BF9706B29
:100DF000002118F80000317090B144F2EF55002046
:100E0000C0F60005C0B2215C284603F05BF9716BA7
:100E10003078394401300979C2B28A423070F1D356
:100E200044F2EC50C0F6000002B0BDE8F04103F01F
:100E300049B900BF666463616E312C200000000078
:100E400030782538582C20253032642C2025632C0E
:100E50002025633A000000007047000090F85C1005
:100E600001290BD1022180F85C1001688A6922F007
:100E700001028A610021016608467047016E41F057
:100E800004010166012070477047000070470000B0
:100E90007047000070470000704700007047000076
:100EA0002DE9F04F82B00D68002D00F0C58000F1F3
:100EB0003847860546EA972741F20046C4F6000601
:100EC000062240F2004EB04208BF0522C4F2010ED5
:100ED000052F38BF3A464FF0000C012400270026AA
:100EE000009209E00D68013635FA06F207F10207B3
:100EF0000CF1040C00F0A08004FA06FB15EA0B08C4
:100F0000F0D0D1F804A003230AF003056A1EBB4009
:100F1000012A6FEA03090FD88268CB6802EA090246
:100F2000BB401A4382604268CAF3001322EA0B02F4
:100F3000B3401A43426003E0032D01D103251FE0B3
:100F4000C2688B6802EA0902BB401A43022DC260E4
:100F500016D16FF0030202EA560202440CF01C059F
:100F60000F23D2F820A003FA05FB0B692AEA0B0A2B
:100F7000AB4043EA0A031362D1F804A00AF0030568
:100F8000026805FA07F302EA09021A431AF4403F1D
:100F90000260A7D041F26003C4F202031A684FF660
:100FA000084A42F001021A601A68CFF6FF7A02F08E
:100FB00001020192019A26F00302724452F80A904B
:100FC0000CF00C050F23009CAB4029EA030304FA44
:100FD00005F52B4342F80A30DEF808204B6842EA58
:100FE000080540F20C49DC0258BF22EA0805CEF899
:100FF0000850C4F20109D9F800209D0242EA080411
:1010000058BF22EA0804C9F80040DEF804209D0316
:1010100042EA080458BF22EA0804CEF80440DEF889
:101020000020DB0342EA080458BF22EA0804CEF895
:101030000040012456E700BF02B0BDE8F08F000079
:1010400040F27020C2F200000068704740F20400D5
:1010500040F27021C2F20000C2F2000140680A684A
:10106000104408607047000080B5032000F08AF843
:101070000F2000F009F800281CBF012080BD00F0FF
:1010800029F8002080BD000070B540F20406C2F2CD
:1010900000067168E1B1044640F22000C2F200008F
:1010A0004FF47A720068B2FBF1F1B0FBF1F000F09E
:1010B000ABFE0F2C4FF0010508D838B94FF0FF30C8
:1010C00021460022002500F031F83460284670BD2A
:1010D000012070BD82B041F25800C4F20200816864
:1010E00041F001018160816801F0010101910199E4
:1010F000016841F080510160006800F0805000906C
:10110000009802B000F0E2B8002848BF704700F035
:101110001F01012202FA01F11C2202EAD0004EF264
:101120000012CEF2000281507047000010B54EF65A
:101130000C5CCEF2000CDCF80030C3F3022E8EF013
:101140000704042C28BF0424BEF103034FF0FF3E24
:101150000EFA04F438BF0023A14399400EFA03F3BA
:101160009A43114300F00F0200F160430901043A71
:1011700003F564436244002848BF02F10C03197070
:1011800010BD00004EF60C51CEF200010A684FF679
:10119000FF031A4060F30A2242F0806040F0FD70C5
:1011A00008607047B0F5007F42D0002840F0808092
:1011B00047F21400C4F2000050F8141CC26E01F48F
:1011C000C06122F48072B1F5806FC2662ED150F8F2
:1011D000141C012262F34A2140F8141C40F2200141
:1011E000C2F200010968322251434DF68362C4F213
:1011F0001B32A1FB0212910C0268520511D54A1C48
:101200000FD0026852050CD559B10268520508D5B5
:10121000012906D00268520503D50229A1F1040173
:10122000EAD10068400544BF0320704700207047A2
:1012300047F21400C4F2000050F8141CC26E01F40E
:10124000C06142F48072B1F5806FC266EED150F891
:10125000141C012262F34A2140F8141C40F22001C0
:10126000C2F200010968322251434DF68362C4F292
:101270001B32A1FB0212910C0268520511D54A1CC7
:101280000FD0026852050CD559B10268520508D535
:10129000012906D00268520503D50229A1F10401F3
:1012A000EAD10068400544BF03207047BEE700BF95
:1012B00047F21400C4F2000050F8141C022262F33A
:1012C0004A2140F8141C00207047000047F2080033
:1012D000C4F20000016841F48041016070470000E1
:1012E0002DE9F04182B00446807841F2880600077B
:1012F000C4F2020602D400202FE000BF56F8300CE2
:101300005FEAC0080BD456F8300C40F0805046F825
:10131000300C56F8300C00F080500190019847F2E4
:101320000007C4F20007386840F480703860FFF7A7
:1013300087FE05463868C00500F1D680FFF780FEBD
:10134000401B0228F6D90320B8F1000F05D456F847
:10135000301C21F0805146F8301C2168CA0713D197
:101360008A0719D44A071FD40A0725D48A062BD422
:101370004A0631D40A0637D4CA053DD48A0543D477
:101380004A0549D457E000BF3268636822F003027F
:101390001A4332608A07E5D53268A36822F00C024E
:1013A0001A4332604A07DFD53268E36822F0300220
:1013B0001A4332600A07D9D53268236922F0C00285
:1013C0001A4332608A06D3D53268636922F44062D8
:1013D0001A4332604A06CDD53268A36922F44052DE
:1013E0001A4332600A06C7D53268E36922F44042E4
:1013F0001A433260CA05C1D53268236A22F44032EA
:101400001A4332608A05BBD53268636A22F44022EF
:101410001A4332604A050ED53268A36A22F440129C
:101420001A43B3F5801F326005D156F87C2C42F484
:10143000801246F87C2C0A050ED53268E36A22F445
:1014400040021A43B3F5800F326005D156F87C2C68
:1014500042F4801246F87C2CCA040ED53268236B05
:1014600022F040721A43B3F1807F326005D156F802
:101470007C2C42F4801246F87C2C8A040ED532680B
:10148000636B22F040621A43B3F1006F326005D102
:1014900056F87C2C42F4801246F87C2C4A040ED577
:1014A0003268A36B22F040621A43B3F1006F3260DE
:1014B00005D156F87C2C42F4801246F87C2C0904A5
:1014C0000ED53168E26B21F040511143B2F1805FDB
:1014D000316005D156F87C1C41F4803146F87C1C03
:1014E00002B0BDE8F08100BFB06810F4407010D0C9
:1014F000216C88420BD0B068B16820F4407041F490
:101500008031B160B16821F48031B160B060C00752
:101510000CD1B068216C20F440700843B06000200A
:10152000B8F1000F3FF519AF11E700BFFFF788FDD5
:10153000054641F2883700BFB0688007E9D4FFF75D
:101540007FFD401BB842F7D9FDE600002DE9F047CA
:10155000002865D042F2000AC4F2020A0446DAF812
:1015600000000D4600F00F0088420CD2DAF80000AF
:1015700020F00F002843CAF80000DAF8000000F05D
:101580000F00A8424CD1216841F20808C807C4F2F4
:10159000020803D1880740F1D480B9E060680228CE
:1015A0003AD0032840D158F8082C920138D5D8F801
:1015B0000420D8F8043042F20046C3F3031302F0CB
:1015C0000302D8F804700133C0F2F406032A04BF02
:1015D00043F20066C0F26E16B6FBF3F2D8F80430A0
:1015E000C7F306277A43C3F34163022707EB43039C
:1015F000B2FBF3F24BF20043C0F2C4439A425DD90E
:10160000D8F8002012F0F00F4DD0890756D5A16808
:10161000002953D147E000BF58F8081C890307D4BC
:101620000120BDE8F08700BF58F8081C4905F7D530
:10163000D8F8001001F00C0104293FD0D8F80010B0
:1016400001F00C01082939D0D8F8001001F00C0184
:101650000C2933D1D8F80410D8F8042042F20047FE
:10166000C2F3031201F00301D8F804300132C0F2D2
:10167000F407032904BF43F20067C0F26E17B7FBFB
:10168000F2F1D8F80420C3F306235943C2F34162B0
:10169000022303EB4202B1FBF2F14BF20042C0F233
:1016A000C44291420AD9D8F80010082262F3071107
:1016B0004FF00109C8F8001002E000BF4FF0000928
:1016C000D8F8001021F003010843C8F80000FFF724
:1016D000B7FC064641F28837D8F80000616800F090
:1016E0000C00B0EB810F07D0FFF7AAFC801BB842BB
:1016F000F2D90320BDE8F0872168880708D4B9F142
:10170000000F1ED0D8F8000020F0F00017E000BF56
:10171000480705D5D8F8000040F4E060C8F800009C
:10172000080706D5D8F80000072262F30D20C8F894
:101730000000D8F80000A26820F0F0001043C8F8BC
:101740000000DAF8000000F00F00A8421BD9DAF818
:10175000000020F00F002843CAF80000FFF770FCDB
:10176000064641F2883700BFDAF8000000F00F00AB
:10177000A84207D0FFF764FC801BB842F4D90320CD
:10178000BDE8F0872168480707D5D8F80000E2686F
:1017900020F4E0601043C8F80000080708D5D8F826
:1017A0000000216920F4605040EAC100C8F8000040
:1017B000D8F8000042F20041C0F2F40100F00C0041
:1017C000042808462DD0D8F8000000F00C000828A6
:1017D00043F20060C0F26E1023D0D8F8002002F06F
:1017E0000C020C2A1CD1D8F80420D8F8043002F0DE
:1017F0000302C3F30313D8F804700133032A08BFAC
:101800000146B1FBF3F0D8F80410C7F30627C1F383
:1018100041610222784302EB4101B0FBF1F000E0AC
:101820000020D8F8001044F28C52C1F30311C0F626
:101830000002515C40F2200201F01F0120FA01F188
:1018400040F20400C2F200000068C2F2000211601F
:10185000BDE8F047FFF718BC40F2200041F2080154
:10186000C2F20000C4F202010068096844F29C520E
:10187000C1F30221C0F60002515C01F01F01C84013
:101880007047000040F2200041F20801C2F200005F
:10189000C4F202010068096844F29C52C1F3C221FB
:1018A000C0F60002515C01F01F01C8407047000003
:1018B00041F20C01C4F2020151F8040C42F2004260
:1018C000C0F2F40200F00C000428104608BF704774
:1018D00051F8040C00F00C00082843F20060C0F23C
:1018E0006E1025D051F8043C03F00C030C2B1CBFE8
:1018F0000020704780B5D1F800C00B680CF0030CD5
:10190000C3F3031E0B680EF1010EBCF1030F08BFF9
:1019100002460968B2FBFEF0C3F30623C1F341613E
:101920000222584302EB4101B0FBF1F0BDE88040D8
:1019300070470000002804BF012070472DE9F041E6
:1019400082B00446007841F20006C007C4F20206E5
:101950001ED1207880073DD42078000764D42078F9
:10196000400700F187802078800600F1D980E56982
:10197000002D00F04482B06800F00C000C2840F00C
:101980003181012D40F09081012002B0BDE8F0814D
:10199000B06800F00C01F068082961D0032281F0E2
:1019A0000C0122EA00000844B0FA80F0400957D147
:1019B0006068B0F5803F07D0B0F5A02F40F0E4801C
:1019C000306840F480203060306840F4803030600F
:1019D000E5E000BFB068F16800F00C00042871D0A9
:1019E00001F0030180F00C0081F002010844B0FA1C
:1019F00080F0400966D1E1683068002900F0E0809D
:101A000040F480703060FFF71BFB054630684005EE
:101A100000F10A81FFF714FB401B0228F6D90320CE
:101A200002B0BDE8F08100BF6169D6F894000029DA
:101A300000F0948040F00100C6F89400FFF700FB2E
:101A4000054600BFD6F8940080073FF588AFFFF742
:101A5000F7FA401B0228F5D9032002B0BDE8F08157
:101A6000306880037FF575AF606800287FF471AF40
:101A70003EE000BFB06D5FEAC00808D4B06D40F032
:101A80008050B065B06D00F080500190019847F231
:101A90000007C4F200073868C0052DD4386840F448
:101AA00080703860FFF7CCFA054600BF3868C00583
:101AB00022D4FFF7C5FA401B0228F7D9032002B051
:101AC000BDE8F0813068400501D5E06880B17068FC
:101AD000216920F0FE4040EA0160706040F204009D
:101AE000C2F200000068FFF7CFFA00283FF434AFDD
:101AF000012002B0BDE8F081A068012808D00528C7
:101B000040F0B080D6F8900040F00400C6F8900095
:101B1000D6F8900040F00100C6F89000B0E000BF99
:101B2000A169D6F89800002900F0868040F00100F5
:101B3000C6F89800FFF784FA054600BFD6F898006B
:101B400080073FF514AFFFF77BFA401B02284FF0E8
:101B50000300F3D902B0BDE8F08100BF20F001001E
:101B6000C6F89400FFF76CFA054600BFD6F894005B
:101B700080077FF5F4AEFFF763FA401B0228F5D922
:101B8000032002B0BDE8F0813168002821F48031E3
:101B90003160316821F48021316000F0BF80FFF7AF
:101BA0004FFA0546306880033FF5D3AEFFF748FA99
:101BB000401B6428F6D9032002B0BDE8F08100BFC5
:101BC00020F480703060FFF73BFA0546306840052E
:101BD0007FF5C2AEFFF734FA401B02284FF0030036
:101BE000F4D9B7E7306820F080703060FFF728FA4A
:101BF000022D05460CD100BF3068800140F1BA804B
:101C0000FFF71EFA401B02284FF00300F4D9A1E7AA
:101C10003068800140F1EC80FFF712FA401B022887
:101C20004FF00300F4D995E77068216920F0FE4079
:101C300040EA016070608FE620F00100C6F898006D
:101C4000FFF7FEF9054600BFD6F8980080077FF53C
:101C50008EAEFFF7F5F9401B02284FF00300F3D9D1
:101C600078E700BFD6F89010002821F00101C6F8EF
:101C70009010D6F8901021F00401C6F890105DD0B5
:101C8000FFF7DEF9054641F2883700BFD6F890002D
:101C9000800765D4FFF7D4F9401BB842F6D903207A
:101CA00002B0BDE8F08100BFF068216A00F00302D5
:101CB0008A427FF41DAF626A6FF00F0300F0F001FB
:101CC00003EB021291427FF413AFA16A00F4FE42CB
:101CD000B2EB012F7FF40CAFE16A00F07842B2EB77
:101CE000C16F7FF405AF226B0023CFF6E07303EAE8
:101CF000025200F4C001A2F5001291427FF4F8AE46
:101D0000616B4FF07E4202EA016100F0C06001F1B8
:101D10007E4188427FF4ECAE71E000BFFFF790F99E
:101D2000054600BF306880037FF513AEFFF788F9E2
:101D3000401B64284FF00300F4D90BE7FFF780F94C
:101D4000054641F2883700BFD6F89000800707D5D6
:101D5000FFF776F9401BB8424FF00300F4D9F9E6DB
:101D6000B8F1000F3FF5FFADB06D20F08050B065C9
:101D7000F9E500BFF06848F20C01C0F29F1104F1D0
:101D8000200700EA010C8ECF6FF00F00D4E90C544D
:101D900000EB02100022CFF6E07241EA0C0102EAE9
:101DA00005520843A2F500124FF07E4540EA032099
:101DB00005EA0465104305F17E4540EAC760284303
:101DC000F060306840F080703060F06840F0807003
:101DD000F060FFF735F90446306880010FD4FFF753
:101DE0002FF9001B02284FF00300F5D9B2E600BF1F
:101DF000F0684FF6FC71CFF6EE610840F06000200D
:101E000002B0BDE8F0810000411E0020B0EB116F70
:101E10001CBF012070474EF21002CEF2000251604A
:101E20004EF62351CEF20001F0230B700721906093
:101E30001160704790F88410012904BF0220704798
:101E40002421C0F8881002681168136823F0010388
:101E5000136021F000530021416613602022C0F876
:101E6000882080F884100846704700007047000002
:101E70007047000090F88420012A04BF02207047B8
:101E8000B0B52422C0F888200268D0F864E0D2F807
:101E900000C01368BEF1000F23F0010313609368C4
:101EA00023F0606341EA0301916019D0936891685F
:101EB00044F2DC5E490FC0F6000E44F2E4551EF811
:101EC0000140C0F60005695CC3F34263E400B4FB63
:101ED000F1F11EF80340EB5CE500B5FBF3F301E024
:101EE00001210123A0F86A102021A0F86830C2F86F
:101EF00000C0C0F88810002180F88410BDE8B04010
:101F00000846704790F88420012A04BF02207047D9
:101F1000B0B52422C0F888200268D0F864E0D2F876
:101F200000C01368BEF1000F23F001031360936833
:101F300023F0604341EA0301916019D093689168EE
:101F400044F2DC5E490FC0F6000E44F2E4551EF880
:101F50000140C0F60005695CC3F34263E400B4FBD2
:101F6000F1F11EF80340EB5CE500B5FBF3F301E093
:101F700001210123A0F86A102021A0F86830C2F8DE
:101F800000C0C0F88810002180F88410BDE8B0407F
:101F90000846704770470000704700007047000017
:101FA00070B5016840F62F03CA69044608688E6858
:101FB0001340202B0CD100F0200306F080555B1954
:101FC00017D0616F69B32046BDE87040084700BF75
:101FD00040F60F031A420CD00123C1F2000306EAB7
:101FE000030C40F22013C0F20043034013EB0C0338
:101FF00028D1E36ED50615D5012B13D110F01003AF
:1020000010D0102008628868400627D4B4F85C001D
:10201000B4F85E10B4F85E20002A18BF884240F081
:102020003F8270BDD30240F1D58016F4800300F0EA
:10203000D1804FF4801220460A62BDE87040FFF75D
:10204000ABBF00BFD30718BF10F4807340F00C8102
:10205000930706F0010E00F113811CE1D4F8800013
:10206000006841688AB2002ADBD0B4F85C309A423A
:10207000D7D2A4F85E100068800600F19E80206828
:1020800050E8000F216820F4807041E80002DAB1C6
:10209000206850E8000F216820F4807041E80002B9
:1020A00092B1206850E8000F216820F4807041E868
:1020B00000024AB1206850E8000F216820F48070C7
:1020C00041E80002002ADAD1206850E8020F2168B6
:1020D00020F0010041E80202BAB3206850E8020F84
:1020E000216820F0010041E8020272B3206850E844
:1020F000020F216820F0010041E802022AB32068A3
:1021000050E8020F216820F0010041E80202002A95
:10211000DAD11AE0206850E8020F216820F0400070
:1021200041E80202DAB1206850E8020F216820F08D
:10213000400041E8020292B1206850E8020F216895
:1021400020F0400041E802024AB1206850E8020F46
:10215000216820F0400041E80202002ADAD1202064
:10216000C4F88C000020E066206850E8000F216869
:1021700020F0100041E80002DAB1206850E8000FBA
:10218000216820F0100041E8000292B1206850E878
:10219000000F216820F0100041E800024AB12068D9
:1021A00050E8000F216820F0100041E80002002AEA
:1021B000DAD1D4F88000FEF71FF902202067B4F8C6
:1021C0005C00B4F85E10401A81B22046BDE8704051
:1021D000FFF74CBE110606D500F0800106F400039F
:1021E000C91840F0DF81510632D510F040012FD0E0
:1021F000206850E8000F216820F0400041E800020C
:10220000DAB1206850E8000F216820F0400041E872
:10221000000292B1206850E8000F216820F04000D1
:1022200041E800024AB1206850E8000F216820F020
:10223000400041E80002002ADAD120200021C4F841
:1022400088002046A167BDE8704000F087BB00BF52
:10225000110240F1B38110F0804100F0AF812046BF
:10226000BDE87040FFF796BE01230B62D4F89030B2
:1022700043F00103C4F89030930706F0010E0AD52D
:10228000BEF1000F07D002230B62D4F8903043F068
:102290000403C4F8903053070AD5BEF1000F07D0ED
:1022A00004230B62D4F8903043F00203C4F890305A
:1022B00013070CD500F0200353EA0C0307D00823C2
:1022C0000B62D4F8903043F00803C4F89030130543
:1022D0000BD510F0806308D04FF400630B62D4F884
:1022E000903043F02003C4F89030D4F89030002BA5
:1022F0003FF497AE92060AD500F0200006F0805217
:10230000801804D0626F12B1204690472168D4F83B
:102310009000896800F0280001F04001401807D1C2
:102320002046FFF73BFE0020C4F8900070BD00BFC0
:10233000206850E8000F216820F4907041E8000206
:10234000DAB1206850E8000F216820F4907041E86D
:10235000000292B1206850E8000F216820F49070CC
:1023600041E800024AB1206850E8000F216820F4DB
:10237000907041E80002002ADAD14FF6FE70CEF6E6
:10238000FF7000BF216851E8021F2268014042E847
:102390000213C3B1216851E8021F2268014042E8DC
:1023A000021383B1216851E8021F2268014042E80C
:1023B000021343B1216851E8021F2268014042E83C
:1023C0000213002BDED1E06E012824D1206850E8F2
:1023D000000F216820F0100041E80002DAB1206807
:1023E00050E8000F216820F0100041E8000292B18F
:1023F000206850E8000F216820F0100041E800023A
:102400004AB1206850E8000F216820F0100041E830
:102410000002002ADAD12020C4F88C000020E066F7
:10242000216860678868400640F1C280206850E8F3
:10243000020F216820F0400041E80202DAB1206872
:1024400050E8020F216820F0400041E8020292B1FA
:10245000206850E8020F216820F0400041E80202A5
:102460004AB1206850E8020F216820F0400041E89E
:102470000202002ADAD1D4F88000002800F0988007
:1024800042F62161C0F600018163FDF7EDFF0028EF
:102490003FF4C7ADD4F88000816BBDE870400847B9
:1024A000401A00BF216851E8001F226821F4907192
:1024B00042E80013DBB1216851E8001F226821F4D3
:1024C000907142E8001393B1216851E8001F22681F
:1024D00021F4907142E800134BB1216851E8001FCC
:1024E000226821F4907142E80013002BDAD14FF6F4
:1024F000FE71CEF6FF7100BF226852E8022F2368FA
:102500000A4043E80226C6B1226852E8022F236837
:102510000A4043E8022686B1226852E8022F236867
:102520000A4043E8022646B1226852E8022F236897
:102530000A4043E80226002EDED12021C4F88C1088
:102540000021E166616700BF216851E8001F226831
:1025500021F0100142E80013DBB1216851E8001FAF
:10256000226821F0100142E8001393B1216851E87C
:10257000001F226821F0100142E800134BB12168CE
:1025800051E8001F226821F0100142E80013002BDF
:10259000DAD1022281B220462267BDE87040FFF7FF
:1025A00065BC00BFA16F00297FF40DAD39E500BF08
:1025B0002046BDE87040FFF7F1BC00BFD1017FF5B8
:1025C00030ADB0F1FF3FC8BF70BD2046BDE87040E0
:1025D000FFF74EBC10B5D0B10446D0F8880028B93A
:1025E000002084F88400204600F026F82420C4F857
:1025F00088002068A16A026822F00102026011B11D
:10260000204600F0DFFA204601F0DAF810B1012090
:1026100010BD00BF2168486820F490404860886879
:1026200020F02A008860086840F0010220460A6015
:10263000BDE8104000F03CBB10B596B004466846BB
:1026400008303C21FDF71CFE206843F60001C4F26F
:102650000101884202D016B010BD00BF01200090D9
:10266000002468460194FEF73BFE002818BFFDF7E2
:10267000B1FE41F24C00C4F20200416941F48041D4
:102680004161416901F4804111911199016841F062
:1026900001010160006811A900F00100119011987A
:1026A0004FF4C06011900220CDE91204072015906C
:1026B0004FF090401494FEF7F3FB252000210022F8
:1026C000FEF734FD2520FEF71FFD16B010BD0000FB
:1026D000D0F88C30202B07D100294FF0010318BF10
:1026E000002A05D11846704702231846704700BFDC
:1026F00080B50023C366D0F800C048F20003C4F2DE
:1027000000039C4534D0DCF804301B0230D500BFF8
:10271000036853E800CFD0F800E04CF080634EE847
:10272000003CBCF1000F23D0036853E800CFD0F881
:1027300000E04CF080634EE8003CBCF1000F17D085
:10274000036853E800CFD0F800E04CF080634EE817
:10275000003CBCF1000F0BD0036853E800CFD0F869
:1027600000E04CF080634EE8003CBCF1000FCFD19C
:1027700001F072F9002080BD10B540F2F014C2F2F1
:10278000000421780AA001F09DFC2078612802D184
:102790000BA001F0E9FE40F25C1040F2F011C2F231
:1027A0000000C2F200010122BDE81040FFF790BF17
:1027B000526563656976653A2025630D0A0000005D
:1027C00048656C6C6F0D00002DE9F0410446D0F8AF
:1027D000880020281CBF0220BDE8F0810D4600299A
:1027E0004FF0010000F0B8801646002A08BFBDE88F
:1027F000F0810020C4F8900021209846C4F8880099
:10280000FEF71EFCA4F85460A4F85660A1680646C2
:10281000B1F5805F02D1206900286BD02F460025DA
:10282000B4F8560000286BD018F101001CD0B8F1A4
:10283000000F3DD121680BE017F8010B8862B4F856
:1028400056000138A4F85600B4F85600002858D0B5
:10285000C869000640F17A80002FEDD135F8020BEF
:1028600000276FF35F20E9E7216802E0C8690006EE
:1028700009D4C869000606D4C86900065CBFC869E7
:102880005FEA0060F2D51FB117F8010B05E000BF49
:1028900035F8020B00276FF35F208862B4F856000A
:1028A0000138A4F85600B4F856000028E1D128E019
:1028B000216800BFC869000608D4FEF7C1FB801B71
:1028C000404545D821680868F4E700BF17B117F8FC
:1028D000010B04E035F8020B00276FF35F208862DC
:1028E000B4F856000138A4F85600B4F85600002891
:1028F000E0D106E00027B4F8560000287FF494AF3A
:102900002168C86940061FD4B8F1000F1ED018F125
:1029100001000FD1C869400616D4C869400613D417
:10292000C869400610D4C86940064FF00000F1D5D0
:102930000FE000BFFEF784FB801B404508D82068ED
:102940000168C0694006F5D5002002E0FEF778FB7B
:1029500003202021C4F88810BDE8F08170470000F2
:10296000FEE7000080B540F2F80046F20041C2F2F6
:102970000000C4F200014FF44073002280E80E0012
:1029800040F201114FF0220C012301820221C0E923
:1029900005C300F1240C4FF00E0EC0E907118CE8BE
:1029A0000A4001631C210823C2608274C0E90D1330
:1029B000C263FEF76BF8002808BF80BDBDE8804009
:1029C000FDF708BD82B041F24C00C4F2020001687C
:1029D00041F020010160016801F02001019101999D
:1029E000016841F001010160006800F00100009001
:1029F000009802B07047000080B540F25C1043F6CA
:102A00000001C2F20000C4F2010100234FF00C0CDF
:102A10004FF4E13280E80E00C0E90333C0E905C39A
:102A2000C0E90733C0E90933FFF7D4FD002818BF18
:102A3000FDF7D0FC40F25C10C2F200000021FFF76D
:102A400061FA002818BFFDF7C5FC40F25C10C2F225
:102A500000000021FFF70EFA002818BFFDF7BAFCAE
:102A600040F25C10C2F20000FFF7E4F9002808BF52
:102A700080BDBDE88040FDF7ADBC0000FEE7000072
:102A8000FEE700007047000070470000B0B540F25C
:102A9000B80240F20010C2F20002C0F20230106030
:102AA00040F20450C0F20670506040F60810C0F6C4
:102AB0000A30906040F60C50C0F60E70D06041F2C3
:102AC0001010C1F21230106141F21450C1F21670B0
:102AD000506141F61810C1F61A30906141F61C5051
:102AE000C1F61E70D06142F22010C2F22230106294
:102AF00042F22450C2F22670506242F62810C2F60A
:102B00002A30906242F62C50C2F62E70D06243F208
:102B10003010C3F23230106343F23450C3F23670D7
:102B2000506343F63810C3F63A30906343F63C5096
:102B3000C3F63E7040F22804D063C2F2000443F2B0
:102B40005640C1F28200214641F8040F4FF0804008
:102B5000486040F2F8000F25C2F20000CD60FDF79A
:102B600049FD28B144F2F550C0F6000001F0FCFC2C
:102B70004FF4847044F8040F0020606040F2F800C5
:102B800040F2B802C2F20000C2F200022146E56043
:102B9000FDF730FD002808BFB0BD44F2F550C0F687
:102BA0000000BDE8B04001F0DFBC0000FEF74EBA07
:102BB0004EF68850CEF20000016841F470010160C9
:102BC00070470000816A0A070ED4CA0717D18A0726
:102BD00020D44A0729D4CA0632D48A063BD480B509
:102BE0004A0644D458E000BF0268D0F838C05368A1
:102BF00023F4004343EA0C035360CA07E7D002689A
:102C0000D0F82CC0536823F4003343EA0C0353601C
:102C10008A07DED50268D0F830C0536823F48033C9
:102C200043EA0C0353604A07D5D50268D0F834C094
:102C3000536823F4802343EA0C035360CA06CCD5BF
:102C40000268D0F83CC0936823F4805343EA0C0335
:102C500093608A06C3D50268D0F840C0936823F415
:102C6000005343EA0C03936080B54A0614D502680A
:102C7000D0F844C05368BCF5801F23F4801343EAA6
:102C80000C03536008D1D2F804C0D0F848E02CF40B
:102C9000C00343EA0E035360090658BF80BD0168B4
:102CA000C06C4A6822F400221043486080BD0000D6
:102CB000B0B582B004460020C4F89000FEF7C0F919
:102CC000216805460A68120737D56FF07E4C20460A
:102CD0004FF4001100222B46CDF800C000F0EEFFAB
:102CE00050B300BF206850E8000F216820F080003A
:102CF00041E80002DAB1206850E8000F216820F0B6
:102D0000800041E8000292B1206850E8000F21687D
:102D100020F0800041E800024AB1206850E8000F2E
:102D2000216820F0800041E80002002ADAD120204A
:102D3000C4F8880060E000BF21680868400761D5DA
:102D40006FF07E4C20464FF4800100222B46CDF8D8
:102D500000C000F0B3FF002854D000BF206850E846
:102D6000000F216820F4907041E80002E2B1206871
:102D700050E8000F216820F4907041E800029AB1F9
:102D8000206850E8000F216820F4907041E80002AC
:102D900052B1206850E8000F216820F4907041E89B
:102DA0000002002ADAD100BF206850E8020F216833
:102DB00020F0010041E80202DAB1206850E8020F79
:102DC000216820F0010041E8020292B1206850E839
:102DD000020F216820F0010041E802024AB1206898
:102DE00050E8020F216820F0010041E80202002AA9
:102DF000DAD12020C4F88C000320002184F884104C
:102E000002B0B0BD2020C4F88800C4F88C000020B7
:102E1000E0662067002184F8841002B0B0BD000095
:102E2000806A0021A0F85E10A0F85610FFF7B6B82F
:102E3000B0F860200168D0F88C30222B40F0C880B8
:102E4000496A836D114023F8021B8365B0F85E1058
:102E50000139A0F85E10B0F85E10002918BF704765
:102E6000016851E8001F026821F4907142E80013E4
:102E7000E3B1016851E8001F026821F4907142E853
:102E800000139BB1016851E8001F026821F49071A2
:102E900042E8001353B1016851E8001F026821F4B1
:102EA000907142E80013002BDAD100BF016851E8AD
:102EB000021F026821F0010142E80213DBB1016840
:102EC00051E8021F026821F0010142E8021393B1A8
:102ED000016851E8021F026821F0010142E8021373
:102EE0004BB1016851E8021F026821F0010142E87C
:102EF0000213002BDAD12021C0F88C100021416789
:102F00000167016848F20002C4F20002914228D031
:102F10004968090225D500BF016851E8001F026811
:102F200021F0806142E80013DBB1016851E8001F25
:102F3000026821F0806142E8001393B1016851E812
:102F4000001F026821F0806142E800134BB1016864
:102F500051E8001F026821F0806142E80013002B55
:102F6000DAD1C16E012918BFFFF706BC0021C16686
:102F7000016851E8001F026821F0100142E80013C7
:102F8000DBB1016851E8001F026821F0100142E83E
:102F9000001393B1016851E8001F026821F010018D
:102FA00042E800134BB1016851E8001F026821F0AC
:102FB000100142E80013002BDAD10168CA69D20679
:102FC00044BF10220A62B0F85C10FEF74FBF00BF8A
:102FD000886940F008008861704700002DE9F04FD3
:102FE00081B003680446B0F86050DA6918689968DF
:102FF000D4F88C70222F5FD1B4F86830002B18BF42
:1030000012F0200260D1B4F85E00002858D0B4F865
:103010006810884254D200BF206850E8020F21682F
:1030200020F0805041E80202DAB1206850E8020F37
:10303000216820F0805041E8020292B1206850E8F7
:10304000020F216820F0805041E802024AB1206856
:1030500050E8020F216820F0805041E80202002A67
:10306000DAD142F63160C0F600006067206850E8AF
:10307000000F216840F0200041E8000202B3206800
:1030800050E8000F216840F0200041E80002BAB18A
:10309000206850E8000F216840F0200041E800025D
:1030A00072B1206850E8000F216840F0200041E82C
:1030B0000002002ADAD103E0986940F00800986124
:1030C00001B0BDE8F08F00BF4FF6FE7648F2000970
:1030D000CEF6FF760027C4F2000900F4807B01F0F1
:1030E000010A07E02046FFF747FB00BF5FEA886060
:1030F0007FF589AF2068A16D426A2A4021F8022B32
:10310000A165B4F85E100139A4F85E10D0F81C80F7
:103110005FEA487135D05FEAC87218BFBBF1000F93
:1031200004D15FEA88720CD416E000BF012202626B
:10313000D4F8902042F00102C4F890205FEA88722F
:103140000AD5BAF1000F07D002220262D4F890200B
:1031500042F00402C4F8902000290AD5BAF1000F09
:1031600007D004210162D4F8900040F00200C4F8B6
:103170009000D4F8900020B12046FEF70FFFC4F86D
:103180009070B4F85E000028B0D100BF206850E80D
:10319000000F216820F4807041E80002E2B120684D
:1031A00050E8000F216820F4807041E800029AB1D5
:1031B000206850E8000F216820F4807041E8000288
:1031C00052B1206850E8000F216820F4807041E877
:1031D0000002002ADAD100BF206850E8020F2168FF
:1031E000304041E80202C2B1206850E8020F216875
:1031F000304041E8020282B1206850E8020F2168A5
:10320000304041E8020242B1206850E8020F2168D4
:10321000304041E80202002ADED12020C4F88C00B0
:10322000676727672068484502D04068000237D4A6
:10323000E06E01287FF456AFE76600BF206850E8D3
:10324000000F216820F0100041E80002DAB1206888
:1032500050E8000F216820F0100041E8000292B110
:10326000206850E8000F216820F0100041E80002BB
:103270004AB1206850E8000F216820F0100041E8B2
:103280000002002ADAD12068C169C90644BF1021B2
:103290000162B4F85C102046FEF7E8FD26E700BFA7
:1032A000206850E8000F216820F0806041E80002AB
:1032B000002ABDD0206850E8000F216820F080600F
:1032C00041E80002002AB3D0206850E8000F2168CE
:1032D00020F0806041E80002002AA9D0206850E870
:1032E000000F216820F0806041E80002002AD7D159
:1032F0009EE70000B0F860100268D0F88C30222BF6
:1033000040F0CA80526A836D11401970816D01319D
:103310008165B0F85E100139A0F85E10B0F85E105B
:10332000002918BF704700BF016851E8001F0268FC
:1033300021F4907142E80013E3B1016851E8001FE5
:10334000026821F4907142E800139BB1016851E8D2
:10335000001F026821F4907142E8001353B1016824
:1033600051E8001F026821F4907142E80013002B1D
:10337000DAD100BF016851E8021F026821F00101A3
:1033800042E80213DBB1016851E8021F026821F034
:10339000010142E8021393B1016851E8021F02687B
:1033A00021F0010142E802134BB1016851E8021F0C
:1033B000026821F0010142E80213002BDAD120213A
:1033C000C0F88C10002141670167016848F20002D3
:1033D000C4F20002914228D04968090225D500BFF5
:1033E000016851E8001F026821F0806142E8001383
:1033F000DBB1016851E8001F026821F0806142E8FA
:10340000001393B1016851E8001F026821F0806148
:1034100042E800134BB1016851E8001F026821F037
:10342000806142E80013002BDAD1C16E012918BF78
:10343000FFF7A2B90021C166016851E8001F0268C8
:1034400021F0100142E80013DBB1016851E8001FD0
:10345000026821F0100142E8001393B1016851E8BD
:10346000001F026821F0100142E800134BB101680F
:1034700051E8001F026821F0100142E80013002B00
:10348000DAD10168CA69D20644BF10220A62B0F8D4
:103490005C10FEF7EBBC00BF906940F00800906143
:1034A000704700002DE9F04F81B003680446B0F882
:1034B0006050DA6918689968D4F88C70222F5FD14F
:1034C000B4F86830002B18BF12F0200260D1B4F8B5
:1034D0005E00002858D0B4F86810884254D200BF6B
:1034E000206850E8020F216820F0805041E8020275
:1034F000DAB1206850E8020F216820F0805041E8DE
:10350000020292B1206850E8020F216820F080503A
:1035100041E802024AB1206850E8020F216820F019
:10352000805041E80202002ADAD143F2F520C0F6C9
:1035300000006067206850E8000F216840F020001C
:1035400041E8000202B3206850E8000F216840F013
:10355000200041E80002BAB1206850E8000F21685D
:1035600040F0200041E8000272B1206850E8000FEE
:10357000216840F0200041E80002002ADAD103E08F
:10358000986940F00800986101B0BDE8F08F00BF75
:103590004FF6FE7648F20009CEF6FF760027C4F219
:1035A000000900F4807B01F0010A07E02046FFF7E4
:1035B000E3F800BF5FEA88607FF589AF2068A16DFE
:1035C000406A28400870A16D20680131A165B4F8F7
:1035D0005E100139A4F85E10D0F81C805FEA4871D3
:1035E00035D05FEAC87218BFBBF1000F04D15FEAA3
:1035F00088720CD416E000BF01220262D4F8902039
:1036000042F00102C4F890205FEA88720AD5BAF14C
:10361000000F07D002220262D4F8902042F0040288
:10362000C4F8902000290AD5BAF1000F07D0042170
:103630000162D4F8900040F00200C4F89000D4F881
:10364000900020B12046FEF7A9FCC4F89070B4F8B1
:103650005E000028AED100BF206850E8000F21684E
:1036600020F4807041E80002E2B1206850E8000FC9
:10367000216820F4807041E800029AB1206850E887
:10368000000F216820F4807041E8000252B12068E8
:1036900050E8000F216820F4807041E80002002A01
:1036A000DAD100BF206850E8020F2168304041E8BD
:1036B0000202C2B1206850E8020F2168304041E8A0
:1036C000020282B1206850E8020F2168304041E8D0
:1036D000020242B1206850E8020F2168304041E800
:1036E0000202002ADED12020C4F88C006767276719
:1036F0002068484502D04068000237D4E06E0128B7
:103700007FF454AFE76600BF206850E8000F2168DF
:1037100020F0100041E80002DAB1206850E8000F04
:10372000216820F0100041E8000292B1206850E8C2
:10373000000F216820F0100041E800024AB1206823
:1037400050E8000F216820F0100041E80002002A34
:10375000DAD12068C169C90644BF10210162B4F8FA
:103760005C102046FEF782FB24E700BF206850E88B
:10377000000F216820F0806041E80002002ABDD0DF
:10378000206850E8000F216820F0806041E80002C6
:10379000002AB3D0206850E8000F216820F0806034
:1037A00041E80002002AA9D0206850E8000F2168F3
:1037B00020F0806041E80002002AD7D19EE7000097
:1037C00070B5054605F108041ECC0068194341EAAE
:1037D0000403EE69046846F6F311CCF6FF7121404C
:1037E000194331430160416848F2000C21F4405113
:1037F00011434160AA69C4F2000C60451CBF296AEC
:103800000A4381684FF2FF43C1F2FF13194011438D
:103810008160C16AD5F824E021F00F0141EA0E0170
:10382000C16244F6FF31C4F2000188424FF0100338
:1038300014DD44F60041C4F20001884222D0604504
:1038400028D043F60001C4F20101884238D141F288
:103850008801C4F202010B687BA22DE044F2004112
:10386000C4F2000188421DD044F60001C4F20001F8
:10387000884225D141F28801C4F2020109680B098E
:1038800016E000BF41F28801C4F2020109688B0909
:103890000EE000BF41F28801C4F2020109688B0A00
:1038A00006E000BF41F28801C4F2020109688B08FA
:1038B00044F2CC52C0F6000203F0030152F821306A
:1038C000604542F20040C0F2F40015D0B6F5004F5A
:1038D00022D1082B4FF0010100F2AD80DFE803F0A8
:1038E000065C6AAB60ABABAB680000BFFDF7B4FF32
:1038F000002840F059809AE0082B4FF0010100F2B7
:103900009A80DFE803F0059825981B989898230083
:10391000FDF7A2FFB0B98AE0082B4FF0010100F2D9
:103920008A80DFE803F005636F88678888886D0008
:10393000FDF792FF002860D179E000BFFDF7B8FFE6
:10394000002874D0D5F824E002E000BF4FF4004016
:1039500044F2A451C0F6000131F81E106A68B0FBB1
:10396000F1F002EB420188424FF0010163D31303EF
:10397000984260D8010E000210EB520041F10001A4
:103980000023FCF745FC4FF60052A0F54071C0F251
:103990000F02914249D34DE0FDF774FF20B946E094
:1039A000FDF786FF002842D0D5F824E002E000BFF2
:1039B0004FF4004044F2A451C0F6000131F81E104B
:1039C0006A68B0FBF1F0510801EB4000B0FBF2F087
:1039D0004FF6EF72A0F1100191422BD84FF6F07123
:1039E0000140C0F3420008441FE000BFFDF74AFF5A
:1039F00018B91CE0FDF75CFFC8B1D5F824E001E080
:103A00004FF4004044F2A451C0F6000131F81E10FA
:103A10004FF6EF72B0FBF1F0696800EB5100B0FBBC
:103A2000F1F0A0F11001914204D82968C86000218A
:103A300001E000BF01214FF00110A86600220846F6
:103A40006A67AA6770BD00BF0100000004000000A3
:103A500002000000080000008165A0F85C20A0F8CA
:103A60005E2081680023436751B1B1F1805F0BD0C4
:103A7000B1F5805F0CD1016921B940F2FF110AE074
:103A8000016939B9FF2106E0016919B13F2102E05E
:103A9000002100E07F21A0F860100021C0F8901004
:103AA0002221C0F88C1000BF016851E8021FD0F835
:103AB00000C041F001014CE80213F3B1016851E884
:103AC000021FD0F800C041F001014CE80213A3B17D
:103AD000016851E8021FD0F800C041F001014CE834
:103AE000021353B1016851E8021FD0F800C041F041
:103AF00001014CE80213002BD6D1416EB1F1005FF9
:103B000003D1B0F86810914240D982680169B2F5DA
:103B1000805F07D1002947D043F2F521C0F60001AC
:103B2000416707E043F2F522C0F600020029426730
:103B300040D000BF016851E8001F026841F4907155
:103B400042E80013002B00F0B680016851E8001F26
:103B5000026841F4907142E80013002B00F0AB8042
:103B6000016851E8001F026841F4907142E80013B7
:103B7000002B00F0A080016851E8001F026841F4AA
:103B8000907142E80013002BD4D194E0826801695F
:103B9000B2F5805F38D1002962D043F2A541C0F66A
:103BA0000001416736E000BF42F63161C0F6000116
:103BB000416700BF016851E8001F026841F0200121
:103BC00042E80013002B76D0016851E8001F02681C
:103BD00041F0200142E80013002B6CD0016851E84D
:103BE000001F026841F0200142E80013002B62D060
:103BF000016851E8001F026841F0200142E800130B
:103C0000002BD7D157E000BF43F2A542C0F6000217
:103C1000426759B3016851E8001F026841F480719E
:103C200042E8001313B3016851E8001F026841F431
:103C3000807142E80013CBB1016851E8001F0268AF
:103C400041F4807142E8001383B1016851E8001F1C
:103C5000026841F4807142E80013002BDAD105E0DC
:103C600042F6DD71C0F60001416700BF016851E80E
:103C7000021F026841F0805142E80213DBB1016883
:103C800051E8021F026841F0805142E8021393B1EB
:103C9000016851E8021F026841F0805142E80213B6
:103CA0004BB1016851E8021F026841F0805142E8BF
:103CB0000213002BDAD10020704700002DE9F041FB
:103CC000804600681546C2690E461140891BB1FA4C
:103CD00081F14909A94223D1069C2CB3611C29D149
:103CE000C1693140891BB1FA81F14909A94217D153
:103CF000C1693140891BB1FA81F14909A9420FD14B
:103D0000C1693140891BB1FA81F14909A94207D142
:103D1000C1693140891BB1FA81F14909A942DFD05B
:103D20000020BDE8F08100BFFDF78AF90320BDE85F
:103D3000F08100BF1F4607E0C0693040801BB0FA29
:103D400080F04009A842EBD1FDF77AF9C01BA042F0
:103D500000F2AE80D8F8000001684907ECD5402E8B
:103D6000EAD0802EE8D0C169090700F1A580C169B9
:103D70000905E1D54FF400610162D8F8000050E870
:103D8000000FD8F8001020F4907041E800020AB348
:103D9000D8F8000050E8000FD8F8001020F4907018
:103DA00041E80002B2B1D8F8000050E8000FD8F89E
:103DB000001020F4907041E800025AB1D8F80000D9
:103DC00050E8000FD8F8001020F4907041E800028D
:103DD000002AD2D14FF6FE70CEF6FF70D8F8001050
:103DE00051E8021FD8F80020014042E80213F3B165
:103DF000D8F8001051E8021FD8F80020014042E82E
:103E00000213A3B1D8F8001051E8021FD8F800201F
:103E1000014042E8021353B1D8F8001051E8021FE4
:103E2000D8F80020014042E80213002BD6D1D8F880
:103E30006C0001282CD1D8F8000050E8000FD8F809
:103E4000001020F0100041E800020AB3D8F800008A
:103E500050E8000FD8F8001020F0100041E80002F0
:103E6000B2B1D8F8000050E8000FD8F8001020F0E8
:103E7000100041E800025AB1D8F8000050E8000FE5
:103E8000D8F8001020F0100041E80002002AD2D13A
:103E900020200021C8F88C00C8F86C10C8F87410F5
:103EA000C8F89000032088F88410BDE8F08100BFB6
:103EB0000320BDE8F08100BF08210162D8F80000AE
:103EC00050E8000FD8F8001020F4907041E800028C
:103ED0000AB3D8F8000050E8000FD8F8001020F41A
:103EE000907041E80002B2B1D8F8000050E8000F2D
:103EF000D8F8001020F4907041E800025AB1D8F8C8
:103F0000000050E8000FD8F8001020F4907041E84D
:103F10000002002AD2D14FF6FE70CEF6FF70D8F81C
:103F2000001051E8021FD8F80020014042E80213B7
:103F3000F3B1D8F8001051E8021FD8F80020014072
:103F400042E80213A3B1D8F8001051E8021FD8F8D4
:103F50000020014042E8021353B1D8F8001051E8A4
:103F6000021FD8F80020014042E80213002BD6D1EE
:103F7000D8F86C0001282CD1D8F8000050E8000FC8
:103F8000D8F8001020F0100041E800020AB3D8F879
:103F9000000050E8000FD8F8001020F0100041E8B1
:103FA0000002B2B1D8F8000050E8000FD8F80010B5
:103FB00020F0100041E800025AB1D8F8000050E8A3
:103FC000000FD8F8001020F0100041E80002002A8D
:103FD000D2D12020C8F88C0000200821C8F86C003D
:103FE000C8F87400C8F8901088F884000120BDE873
:103FF000F081000040F25C10C2F20000FDF7D0BF7B
:10400000FEE7000010B582B004468DF8070040F2CC
:104010005C10C2F200000DF1070101223223FEF70D
:10402000D3FB204602B010BD94B0FDF71DF800246C
:1040300000200C94CDE90A44CDE90844FDF7B2F81C
:10404000012006904FF480300621079002200F9146
:1040500055210D900325CDE91010CDE9120006A8D9
:104060000E95FDF767FC28B1EFF3108072B600BF24
:10407000FEE700BF0F20CDE9010501A80421CDE92D
:1040800003440594FDF762FA20B1EFF3108072B695
:10409000FEE700BFFEF796FCFEF764FCFEF7ACFC03
:1040A000FCF732F940F25C1040F2F011C2F200006D
:1040B000C2F200010122FEF70BFB00BFFEF7E6FC97
:1040C000FCE700000FB4054B10B503A9044A0298A1
:1040D00000F018F810BC5DF814FB00000540000863
:1040E0000000002002E008C8121F08C1002AFAD10F
:1040F00070477047002001E001C1121F002AFBD168
:10410000704700002DE9FF4F8DB00F460546002691
:1041100006E025280BD0DDE90F1290476D1C761CB8
:1041200028780028F5D111B03046BDE8F08F002482
:10413000A246A1460122EC4900E0044315F8013FE4
:10414000203B02FA03F00842F7D128782A2810D041
:104150006FF02F022878A0F13001092914D80AEB5A
:104160008A0102EB410144F0020400EB010A6D1CDC
:10417000F0E701CF5FEA000A03D544F40054CAF126
:10418000000A44F002046D1C28782E2817D115F877
:10419000010F44F004042A280ED06FF02F02287873
:1041A000A0F1300109290AD809EB890102EB41018C
:1041B00000EB01096D1CF2E757F8049B6D1C287891
:1041C0006C280FD006DC4C2817D068280DD06A2840
:1041D00014D104E0742810D07A280FD10DE044F4F3
:1041E00000140AE044F4801401E044F440146978B7
:1041F000814202D104F580146D1C6D1C2A786E2A50
:104200001FD00CDC632A31D004DC002A8BD0582A62
:1042100011D1A3E0642A68D0692A0CD165E0732A21
:104220002ED004DC6F2A73D0702A04D19BE0752A4B
:104230006FD0782A6ED01046DDE90F129047761CB9
:1042400050E1C4F30250022806D0032809D0042804
:1042500001CF09D0066045E101CFF117C0E9006147
:1042600040E101CF06803DE106703BE117F8040B09
:104270008DF8000000208DF80100EB46012003E0DE
:1042800057F804BB4FF0FF3061074FF0000102D434
:104290000DE008F10101884649450FDA8045F8DB59
:1042A0001BF808100029F4D108E008F10101884644
:1042B0008142FADB1BF808100029F6D1DDE90F2353
:1042C000AAEB08008146214600F036F9304400EBA5
:1042D000080604E0DDE90F121BF8010B9047B8F166
:1042E0000108F7D221464846F7E00A21C4F30253F9
:1042F0004FF0000B0891022B04D001CFC117032B04
:1043000009D00AE0FF1D27F00707F7E8020108E0DF
:1043100032E01FE020E000B2C117042B01D140B20F
:10432000C117031E71F1000307DA4FF0000CD0EB48
:104330000C006CEB01012D2302E0230504D52B2397
:104340008DF82430012303E0E30701D02023F7E7B1
:10435000984658E00A2110E010210EE010204FF09E
:10436000000B08900CE010214FF0000B44F0040407
:104370004FF00809089103E008214FF0000B089165
:10438000C4F30253022B04D001CF0021032B06D02B
:1043900006E0FF1D27F00707F7E8020103E080B2FF
:1043A000042B00D1C0B24FF0000823072BD5702A90
:1043B00007D0DDF820C08CF0100C5CEA0B0C05D0A7
:1043C0000EE040238DF82430012308E050EA010379
:1043D00006D030238DF824308DF82520022398460E
:1043E000DDF820C08CF0080C5CEA0B0C0BD150EA15
:1043F000010301D1630706D530238DF824304FF037
:104400000108A9F10109582A04D038A20B9208AA80
:104410000A920BE03AA2F9E75B46089AFBF7F8FE2E
:104420000B9B9B5C0A9A521E0A92137050EA01027F
:10443000F2D10A98ADEB000000F1200B600702D525
:1044400024F4803401E04FF00109D94502DDA9EBE5
:104450000B0000E0002000EB0B0141440890AAEBA8
:10446000010AE00306D4DDE90F232146504600F09F
:1044700063F806444FF0000908E009A911F80900A3
:10448000DDE90F12904709F10109761CC145F4DB03
:10449000E0030CD5DDE90F232146504600F04CF82F
:1044A000064404E0DDE90F1230209047761C08999D
:1044B000481E08900029F5DC08E00A980A9900785F
:1044C000491C0A91DDE90F129047761CBBF10001EF
:1044D000ABF1010BF1DC21465046DDE90F2300F082
:1044E00019F806446D1C1BE60928010030313233EF
:1044F0003435363738396162636465660000000020
:104500003031323334353637383941424344454609
:10451000000000002DE9F041044600251E46174624
:10452000880404D405E039462020B0476D1C641E81
:10453000F9D52846BDE8F0812DE9F0410446002573
:104540001E469046C80301D5302700E02027880486
:1045500004D505E041463846B0476D1C641EF9D5C8
:104560002846BDE8F081000010B5044601E0FFF7E1
:1045700049FD14F8010B04490028F8D1BDE81040AA
:104580000A20FFF73FBD00000000002000000000EF
:1045900000000000010203040607080900000000F3
:1045A00001020304010002000400060008000A00E2
:1045B0000C001000200040008000000100010203F8
:1045C00004050607080C10141820304000000000F5
:1045D00004000000020000000800000001010103C7
:1045E0000701000008040204080101010A0D00206F
:1045F0002530325800464443414E312053656E64A5
:10460000204661696C000000284600080000002078
:1046100028000000E4400008504600082800002060
:1046200050060000F44000080000000010000000E8
:10463000010000002D422D4500010203040506077C
:10464000080C1014182030400024F4000000000072
:04000005080001D915
:00000001FF
